{
  "contractName": "Ownable",
  "abi": [
    {
      "constant": false,
      "inputs": [],
      "name": "acceptOwnership",
      "outputs": [],
      "payable": false,
      "stateMutability": "nonpayable",
      "type": "function"
    },
    {
      "constant": true,
      "inputs": [],
      "name": "owner",
      "outputs": [
        {
          "name": "",
          "type": "address"
        }
      ],
      "payable": false,
      "stateMutability": "view",
      "type": "function"
    },
    {
      "constant": false,
      "inputs": [
        {
          "name": "_newOwner",
          "type": "address"
        }
      ],
      "name": "changeOwner",
      "outputs": [],
      "payable": false,
      "stateMutability": "nonpayable",
      "type": "function"
    },
    {
      "constant": true,
      "inputs": [],
      "name": "newOwner",
      "outputs": [
        {
          "name": "",
          "type": "address"
        }
      ],
      "payable": false,
      "stateMutability": "view",
      "type": "function"
    },
    {
      "inputs": [],
      "payable": false,
      "stateMutability": "nonpayable",
      "type": "constructor"
    }
  ],
  "bytecode": "0x6060604052341561000f57600080fd5b336000806101000a81548173ffffffffffffffffffffffffffffffffffffffff021916908373ffffffffffffffffffffffffffffffffffffffff1602179055506103308061005e6000396000f300606060405260043610610062576000357c0100000000000000000000000000000000000000000000000000000000900463ffffffff16806379ba5097146100675780638da5cb5b1461007c578063a6f9dae1146100d1578063d4ee1d901461010a575b600080fd5b341561007257600080fd5b61007a61015f565b005b341561008757600080fd5b61008f61021a565b604051808273ffffffffffffffffffffffffffffffffffffffff1673ffffffffffffffffffffffffffffffffffffffff16815260200191505060405180910390f35b34156100dc57600080fd5b610108600480803573ffffffffffffffffffffffffffffffffffffffff1690602001909190505061023f565b005b341561011557600080fd5b61011d6102de565b604051808273ffffffffffffffffffffffffffffffffffffffff1673ffffffffffffffffffffffffffffffffffffffff16815260200191505060405180910390f35b600160009054906101000a900473ffffffffffffffffffffffffffffffffffffffff1673ffffffffffffffffffffffffffffffffffffffff163373ffffffffffffffffffffffffffffffffffffffff16141561021857600160009054906101000a900473ffffffffffffffffffffffffffffffffffffffff166000806101000a81548173ffffffffffffffffffffffffffffffffffffffff021916908373ffffffffffffffffffffffffffffffffffffffff1602179055505b565b6000809054906101000a900473ffffffffffffffffffffffffffffffffffffffff1681565b6000809054906101000a900473ffffffffffffffffffffffffffffffffffffffff1673ffffffffffffffffffffffffffffffffffffffff163373ffffffffffffffffffffffffffffffffffffffff1614151561029a57600080fd5b80600160006101000a81548173ffffffffffffffffffffffffffffffffffffffff021916908373ffffffffffffffffffffffffffffffffffffffff16021790555050565b600160009054906101000a900473ffffffffffffffffffffffffffffffffffffffff16815600a165627a7a72305820bd768ba5e28a369327ab5fa968976da1f69136edfd7a5041957f99f66fbc76bd0029",
  "source": "pragma solidity ^0.4.14;\n\n\n/// @dev `Owned` is a base level contract that assigns an `owner` that can be\n///  later changed\ncontract Ownable {\n\n    /// @dev `owner` is the only address that can call a function with this\n    /// modifier\n    modifier onlyOwner() {\n        require(msg.sender == owner);\n        _;\n    }\n\n    address public owner;\n\n    /// @notice The Constructor assigns the message sender to be `owner`\n    function Ownable() {\n        owner = msg.sender;\n    }\n\n    address public newOwner;\n\n    /// @notice `owner` can step down and assign some other address to this role\n    /// @param _newOwner The address of the new owner.\n    function changeOwner(address _newOwner) onlyOwner {\n        newOwner = _newOwner;\n    }\n\n\n    function acceptOwnership() {\n        if (msg.sender == newOwner) {\n            owner = newOwner;\n        }\n    }\n}\n",
  "sourcePath": "/Users/igershteyn/tokenai-network-token/contracts/Ownable.sol",
  "compiler": {
    "name": "solc",
    "version": "0.4.18+commit.9cf6e910.Emscripten.clang"
  },
  "schemaVersion": "1.0.1",
  "updatedAt": "2018-02-11T01:05:42.518Z"
}