{
  "contractName": "Pausable",
  "abi": [
    {
      "constant": false,
      "inputs": [],
      "name": "emergencyStop",
      "outputs": [],
      "payable": false,
      "stateMutability": "nonpayable",
      "type": "function"
    },
    {
      "constant": true,
      "inputs": [],
      "name": "stopped",
      "outputs": [
        {
          "name": "",
          "type": "bool"
        }
      ],
      "payable": false,
      "stateMutability": "view",
      "type": "function"
    },
    {
      "constant": false,
      "inputs": [],
      "name": "acceptOwnership",
      "outputs": [],
      "payable": false,
      "stateMutability": "nonpayable",
      "type": "function"
    },
    {
      "constant": false,
      "inputs": [],
      "name": "release",
      "outputs": [],
      "payable": false,
      "stateMutability": "nonpayable",
      "type": "function"
    },
    {
      "constant": true,
      "inputs": [],
      "name": "owner",
      "outputs": [
        {
          "name": "",
          "type": "address"
        }
      ],
      "payable": false,
      "stateMutability": "view",
      "type": "function"
    },
    {
      "constant": false,
      "inputs": [
        {
          "name": "_newOwner",
          "type": "address"
        }
      ],
      "name": "changeOwner",
      "outputs": [],
      "payable": false,
      "stateMutability": "nonpayable",
      "type": "function"
    },
    {
      "constant": true,
      "inputs": [],
      "name": "newOwner",
      "outputs": [
        {
          "name": "",
          "type": "address"
        }
      ],
      "payable": false,
      "stateMutability": "view",
      "type": "function"
    },
    {
      "anonymous": false,
      "inputs": [
        {
          "indexed": false,
          "name": "isStopped",
          "type": "bool"
        }
      ],
      "name": "onEmergencyChanged",
      "type": "event"
    }
  ],
  "bytecode": "0x6060604052336000806101000a81548173ffffffffffffffffffffffffffffffffffffffff021916908373ffffffffffffffffffffffffffffffffffffffff160217905550610559806100536000396000f300606060405260043610610083576000357c0100000000000000000000000000000000000000000000000000000000900463ffffffff16806363a599a41461008857806375f12b211461009d57806379ba5097146100ca57806386d1a69f146100df5780638da5cb5b146100f4578063a6f9dae114610149578063d4ee1d9014610182575b600080fd5b341561009357600080fd5b61009b6101d7565b005b34156100a857600080fd5b6100b0610298565b604051808215151515815260200191505060405180910390f35b34156100d557600080fd5b6100dd6102ab565b005b34156100ea57600080fd5b6100f2610366565b005b34156100ff57600080fd5b610107610443565b604051808273ffffffffffffffffffffffffffffffffffffffff1673ffffffffffffffffffffffffffffffffffffffff16815260200191505060405180910390f35b341561015457600080fd5b610180600480803573ffffffffffffffffffffffffffffffffffffffff16906020019091905050610468565b005b341561018d57600080fd5b610195610507565b604051808273ffffffffffffffffffffffffffffffffffffffff1673ffffffffffffffffffffffffffffffffffffffff16815260200191505060405180910390f35b6000809054906101000a900473ffffffffffffffffffffffffffffffffffffffff1673ffffffffffffffffffffffffffffffffffffffff163373ffffffffffffffffffffffffffffffffffffffff1614151561023257600080fd5b60018060146101000a81548160ff0219169083151502179055507f69599168a4e7e4dfdab47666c80b8f4e4f2ddbf94fffbd241f7b9448dbc9f249600160149054906101000a900460ff16604051808215151515815260200191505060405180910390a1565b600160149054906101000a900460ff1681565b600160009054906101000a900473ffffffffffffffffffffffffffffffffffffffff1673ffffffffffffffffffffffffffffffffffffffff163373ffffffffffffffffffffffffffffffffffffffff16141561036457600160009054906101000a900473ffffffffffffffffffffffffffffffffffffffff166000806101000a81548173ffffffffffffffffffffffffffffffffffffffff021916908373ffffffffffffffffffffffffffffffffffffffff1602179055505b565b6000809054906101000a900473ffffffffffffffffffffffffffffffffffffffff1673ffffffffffffffffffffffffffffffffffffffff163373ffffffffffffffffffffffffffffffffffffffff161415156103c157600080fd5b600160149054906101000a900460ff1615156103dc57600080fd5b6000600160146101000a81548160ff0219169083151502179055507f69599168a4e7e4dfdab47666c80b8f4e4f2ddbf94fffbd241f7b9448dbc9f249600160149054906101000a900460ff16604051808215151515815260200191505060405180910390a1565b6000809054906101000a900473ffffffffffffffffffffffffffffffffffffffff1681565b6000809054906101000a900473ffffffffffffffffffffffffffffffffffffffff1673ffffffffffffffffffffffffffffffffffffffff163373ffffffffffffffffffffffffffffffffffffffff161415156104c357600080fd5b80600160006101000a81548173ffffffffffffffffffffffffffffffffffffffff021916908373ffffffffffffffffffffffffffffffffffffffff16021790555050565b600160009054906101000a900473ffffffffffffffffffffffffffffffffffffffff16815600a165627a7a7230582082de87fe06097dd3d3b1be8781c31ad767a7973a8de3dab0ac3d5de8b3d641f20029",
  "source": "pragma solidity ^0.4.14;\n\n\nimport \"./Ownable.sol\";\n\n\n/*\n * Pausable\n * Abstract contract that allows children to implement an\n * emergency stop mechanism.\n * Made by OpenZeppelin https://github.com/OpenZeppelin/zeppelin-solidity/blob/master/contracts/lifecycle/Pausable.sol\n */\ncontract Pausable is Ownable {\n  bool public stopped;\n  event onEmergencyChanged(bool isStopped);\n\n  modifier stopInEmergency {\n    require(!stopped);\n    _;\n  }\n\n  modifier onlyInEmergency {\n    require(stopped);\n    _;\n  }\n\n  // called by the owner on emergency, triggers stopped state\n  function emergencyStop() external onlyOwner {\n    stopped = true;\n    onEmergencyChanged(stopped);\n  }\n\n  // called by the owner on end of emergency, returns to normal state\n  function release() external onlyOwner onlyInEmergency {\n    stopped = false;\n    onEmergencyChanged(stopped);\n  }\n\n}\n",
  "sourcePath": "/Users/igershteyn/tokenai-network-token/contracts/Pausable.sol",
  "compiler": {
    "name": "solc",
    "version": "0.4.18+commit.9cf6e910.Emscripten.clang"
  },
  "schemaVersion": "1.0.1",
  "updatedAt": "2018-02-11T01:05:42.518Z"
}