{
  "contractName": "TokenAiContribution",
  "abi": [
    {
      "constant": true,
      "inputs": [],
      "name": "totalContributed",
      "outputs": [
        {
          "name": "",
          "type": "uint256"
        }
      ],
      "payable": false,
      "stateMutability": "view",
      "type": "function"
    },
    {
      "constant": false,
      "inputs": [
        {
          "name": "_minContribAmount",
          "type": "uint256"
        }
      ],
      "name": "setMinContribAmount",
      "outputs": [],
      "payable": false,
      "stateMutability": "nonpayable",
      "type": "function"
    },
    {
      "constant": true,
      "inputs": [],
      "name": "founder1",
      "outputs": [
        {
          "name": "",
          "type": "address"
        }
      ],
      "payable": false,
      "stateMutability": "view",
      "type": "function"
    },
    {
      "constant": false,
      "inputs": [
        {
          "name": "tokenAddr",
          "type": "address"
        }
      ],
      "name": "reclaimToken",
      "outputs": [],
      "payable": false,
      "stateMutability": "nonpayable",
      "type": "function"
    },
    {
      "constant": true,
      "inputs": [],
      "name": "initialPrice",
      "outputs": [
        {
          "name": "",
          "type": "uint256"
        }
      ],
      "payable": false,
      "stateMutability": "view",
      "type": "function"
    },
    {
      "constant": true,
      "inputs": [
        {
          "name": "",
          "type": "address"
        }
      ],
      "name": "contributors",
      "outputs": [
        {
          "name": "amount",
          "type": "uint256"
        },
        {
          "name": "price",
          "type": "uint256"
        },
        {
          "name": "isCompensated",
          "type": "bool"
        },
        {
          "name": "amountCompensated",
          "type": "uint256"
        }
      ],
      "payable": false,
      "stateMutability": "view",
      "type": "function"
    },
    {
      "constant": false,
      "inputs": [
        {
          "name": "_softCapAmount",
          "type": "uint256"
        },
        {
          "name": "_afterSoftCapDuration",
          "type": "uint256"
        },
        {
          "name": "_hardCapAmount",
          "type": "uint256"
        },
        {
          "name": "_startTime",
          "type": "uint256"
        },
        {
          "name": "_endTime",
          "type": "uint256"
        }
      ],
      "name": "setContribPeriod",
      "outputs": [],
      "payable": false,
      "stateMutability": "nonpayable",
      "type": "function"
    },
    {
      "constant": true,
      "inputs": [],
      "name": "softCapReached",
      "outputs": [
        {
          "name": "",
          "type": "bool"
        }
      ],
      "payable": false,
      "stateMutability": "view",
      "type": "function"
    },
    {
      "constant": false,
      "inputs": [],
      "name": "enableTokenAiTransfers",
      "outputs": [],
      "payable": false,
      "stateMutability": "nonpayable",
      "type": "function"
    },
    {
      "constant": true,
      "inputs": [],
      "name": "endTime",
      "outputs": [
        {
          "name": "",
          "type": "uint256"
        }
      ],
      "payable": false,
      "stateMutability": "view",
      "type": "function"
    },
    {
      "constant": true,
      "inputs": [],
      "name": "initialSupply",
      "outputs": [
        {
          "name": "",
          "type": "uint256"
        }
      ],
      "payable": false,
      "stateMutability": "view",
      "type": "function"
    },
    {
      "constant": true,
      "inputs": [
        {
          "name": "contributorAddress",
          "type": "address"
        }
      ],
      "name": "getContributor",
      "outputs": [
        {
          "name": "",
          "type": "uint256"
        },
        {
          "name": "",
          "type": "bool"
        },
        {
          "name": "",
          "type": "uint256"
        },
        {
          "name": "",
          "type": "uint256"
        }
      ],
      "payable": false,
      "stateMutability": "view",
      "type": "function"
    },
    {
      "constant": true,
      "inputs": [
        {
          "name": "",
          "type": "uint256"
        }
      ],
      "name": "contributorsKeys",
      "outputs": [
        {
          "name": "",
          "type": "address"
        }
      ],
      "payable": false,
      "stateMutability": "view",
      "type": "function"
    },
    {
      "constant": true,
      "inputs": [],
      "name": "givethWallet",
      "outputs": [
        {
          "name": "",
          "type": "address"
        }
      ],
      "payable": false,
      "stateMutability": "view",
      "type": "function"
    },
    {
      "constant": false,
      "inputs": [
        {
          "name": "_from",
          "type": "address"
        },
        {
          "name": "_to",
          "type": "address"
        },
        {
          "name": "_amount",
          "type": "uint256"
        }
      ],
      "name": "onTransfer",
      "outputs": [
        {
          "name": "",
          "type": "bool"
        }
      ],
      "payable": false,
      "stateMutability": "nonpayable",
      "type": "function"
    },
    {
      "constant": true,
      "inputs": [],
      "name": "TEAM_VESTING_CLIFF",
      "outputs": [
        {
          "name": "",
          "type": "uint256"
        }
      ],
      "payable": false,
      "stateMutability": "view",
      "type": "function"
    },
    {
      "constant": false,
      "inputs": [],
      "name": "enableContribPeriod",
      "outputs": [],
      "payable": false,
      "stateMutability": "nonpayable",
      "type": "function"
    },
    {
      "constant": false,
      "inputs": [
        {
          "name": "_token",
          "type": "address"
        }
      ],
      "name": "claimTokensFromTokenAiNetworkToken",
      "outputs": [],
      "payable": false,
      "stateMutability": "nonpayable",
      "type": "function"
    },
    {
      "constant": true,
      "inputs": [],
      "name": "minContribAmount",
      "outputs": [
        {
          "name": "",
          "type": "uint256"
        }
      ],
      "payable": false,
      "stateMutability": "view",
      "type": "function"
    },
    {
      "constant": true,
      "inputs": [],
      "name": "priceStages",
      "outputs": [
        {
          "name": "",
          "type": "uint256"
        }
      ],
      "payable": false,
      "stateMutability": "view",
      "type": "function"
    },
    {
      "constant": true,
      "inputs": [],
      "name": "afterSoftCapDuration",
      "outputs": [
        {
          "name": "",
          "type": "uint256"
        }
      ],
      "payable": false,
      "stateMutability": "view",
      "type": "function"
    },
    {
      "constant": false,
      "inputs": [],
      "name": "emergencyStop",
      "outputs": [],
      "payable": false,
      "stateMutability": "nonpayable",
      "type": "function"
    },
    {
      "constant": true,
      "inputs": [],
      "name": "bonusPrice",
      "outputs": [
        {
          "name": "",
          "type": "uint256"
        }
      ],
      "payable": false,
      "stateMutability": "view",
      "type": "function"
    },
    {
      "constant": true,
      "inputs": [],
      "name": "tokenAiNetworkToken",
      "outputs": [
        {
          "name": "",
          "type": "address"
        }
      ],
      "payable": false,
      "stateMutability": "view",
      "type": "function"
    },
    {
      "constant": false,
      "inputs": [
        {
          "name": "contributor",
          "type": "address"
        },
        {
          "name": "weiAmount",
          "type": "uint256"
        },
        {
          "name": "price",
          "type": "uint256"
        }
      ],
      "name": "allocatePresaleTokens",
      "outputs": [],
      "payable": false,
      "stateMutability": "nonpayable",
      "type": "function"
    },
    {
      "constant": true,
      "inputs": [],
      "name": "isEnabled",
      "outputs": [
        {
          "name": "",
          "type": "bool"
        }
      ],
      "payable": false,
      "stateMutability": "view",
      "type": "function"
    },
    {
      "constant": true,
      "inputs": [],
      "name": "FOUNDER4_STAKE",
      "outputs": [
        {
          "name": "",
          "type": "uint256"
        }
      ],
      "payable": false,
      "stateMutability": "view",
      "type": "function"
    },
    {
      "constant": true,
      "inputs": [],
      "name": "getConfiguration",
      "outputs": [
        {
          "name": "",
          "type": "bool"
        },
        {
          "name": "",
          "type": "address"
        },
        {
          "name": "",
          "type": "address"
        },
        {
          "name": "",
          "type": "address"
        },
        {
          "name": "",
          "type": "address"
        },
        {
          "name": "",
          "type": "address"
        },
        {
          "name": "",
          "type": "address"
        },
        {
          "name": "",
          "type": "bool"
        }
      ],
      "payable": false,
      "stateMutability": "view",
      "type": "function"
    },
    {
      "constant": true,
      "inputs": [],
      "name": "founder5",
      "outputs": [
        {
          "name": "",
          "type": "address"
        }
      ],
      "payable": false,
      "stateMutability": "view",
      "type": "function"
    },
    {
      "constant": true,
      "inputs": [],
      "name": "FOUNDER2_STAKE",
      "outputs": [
        {
          "name": "",
          "type": "uint256"
        }
      ],
      "payable": false,
      "stateMutability": "view",
      "type": "function"
    },
    {
      "constant": true,
      "inputs": [],
      "name": "stopped",
      "outputs": [
        {
          "name": "",
          "type": "bool"
        }
      ],
      "payable": false,
      "stateMutability": "view",
      "type": "function"
    },
    {
      "constant": true,
      "inputs": [],
      "name": "startTime",
      "outputs": [
        {
          "name": "",
          "type": "uint256"
        }
      ],
      "payable": false,
      "stateMutability": "view",
      "type": "function"
    },
    {
      "constant": false,
      "inputs": [],
      "name": "acceptOwnership",
      "outputs": [],
      "payable": false,
      "stateMutability": "nonpayable",
      "type": "function"
    },
    {
      "constant": false,
      "inputs": [
        {
          "name": "contributor",
          "type": "address"
        }
      ],
      "name": "contributeWithAddress",
      "outputs": [],
      "payable": true,
      "stateMutability": "payable",
      "type": "function"
    },
    {
      "constant": true,
      "inputs": [],
      "name": "FOUNDER3_STAKE",
      "outputs": [
        {
          "name": "",
          "type": "uint256"
        }
      ],
      "payable": false,
      "stateMutability": "view",
      "type": "function"
    },
    {
      "constant": true,
      "inputs": [],
      "name": "founder2",
      "outputs": [
        {
          "name": "",
          "type": "address"
        }
      ],
      "payable": false,
      "stateMutability": "view",
      "type": "function"
    },
    {
      "constant": true,
      "inputs": [],
      "name": "founder4",
      "outputs": [
        {
          "name": "",
          "type": "address"
        }
      ],
      "payable": false,
      "stateMutability": "view",
      "type": "function"
    },
    {
      "constant": false,
      "inputs": [],
      "name": "release",
      "outputs": [],
      "payable": false,
      "stateMutability": "nonpayable",
      "type": "function"
    },
    {
      "constant": false,
      "inputs": [],
      "name": "finalizeContributionEvent",
      "outputs": [],
      "payable": false,
      "stateMutability": "nonpayable",
      "type": "function"
    },
    {
      "constant": true,
      "inputs": [],
      "name": "owner",
      "outputs": [
        {
          "name": "",
          "type": "address"
        }
      ],
      "payable": false,
      "stateMutability": "view",
      "type": "function"
    },
    {
      "constant": true,
      "inputs": [],
      "name": "multisigWallet",
      "outputs": [
        {
          "name": "",
          "type": "address"
        }
      ],
      "payable": false,
      "stateMutability": "view",
      "type": "function"
    },
    {
      "constant": true,
      "inputs": [],
      "name": "hardCapReached",
      "outputs": [
        {
          "name": "",
          "type": "bool"
        }
      ],
      "payable": false,
      "stateMutability": "view",
      "type": "function"
    },
    {
      "constant": true,
      "inputs": [],
      "name": "RESERVE",
      "outputs": [
        {
          "name": "",
          "type": "uint256"
        }
      ],
      "payable": false,
      "stateMutability": "view",
      "type": "function"
    },
    {
      "constant": true,
      "inputs": [],
      "name": "finalPrice",
      "outputs": [
        {
          "name": "",
          "type": "uint256"
        }
      ],
      "payable": false,
      "stateMutability": "view",
      "type": "function"
    },
    {
      "constant": false,
      "inputs": [
        {
          "name": "_newOwner",
          "type": "address"
        }
      ],
      "name": "changeOwner",
      "outputs": [],
      "payable": false,
      "stateMutability": "nonpayable",
      "type": "function"
    },
    {
      "constant": true,
      "inputs": [],
      "name": "tokenTransfersEnabled",
      "outputs": [
        {
          "name": "",
          "type": "bool"
        }
      ],
      "payable": false,
      "stateMutability": "view",
      "type": "function"
    },
    {
      "constant": true,
      "inputs": [
        {
          "name": "offset",
          "type": "uint256"
        },
        {
          "name": "limit",
          "type": "uint256"
        }
      ],
      "name": "getUncompensatedContributors",
      "outputs": [
        {
          "name": "contributorIndexes",
          "type": "uint256[]"
        }
      ],
      "payable": false,
      "stateMutability": "view",
      "type": "function"
    },
    {
      "constant": false,
      "inputs": [
        {
          "name": "from_",
          "type": "address"
        },
        {
          "name": "value_",
          "type": "uint256"
        },
        {
          "name": "data_",
          "type": "bytes"
        }
      ],
      "name": "tokenFallback",
      "outputs": [],
      "payable": false,
      "stateMutability": "nonpayable",
      "type": "function"
    },
    {
      "constant": true,
      "inputs": [],
      "name": "hardCapAmount",
      "outputs": [
        {
          "name": "",
          "type": "uint256"
        }
      ],
      "payable": false,
      "stateMutability": "view",
      "type": "function"
    },
    {
      "constant": true,
      "inputs": [],
      "name": "isContribPeriodRunning",
      "outputs": [
        {
          "name": "",
          "type": "bool"
        }
      ],
      "payable": false,
      "stateMutability": "view",
      "type": "function"
    },
    {
      "constant": true,
      "inputs": [],
      "name": "newOwner",
      "outputs": [
        {
          "name": "",
          "type": "address"
        }
      ],
      "payable": false,
      "stateMutability": "view",
      "type": "function"
    },
    {
      "constant": false,
      "inputs": [],
      "name": "contribute",
      "outputs": [],
      "payable": true,
      "stateMutability": "payable",
      "type": "function"
    },
    {
      "constant": false,
      "inputs": [
        {
          "name": "_owner",
          "type": "address"
        },
        {
          "name": "_spender",
          "type": "address"
        },
        {
          "name": "_amount",
          "type": "uint256"
        }
      ],
      "name": "onApprove",
      "outputs": [
        {
          "name": "",
          "type": "bool"
        }
      ],
      "payable": false,
      "stateMutability": "nonpayable",
      "type": "function"
    },
    {
      "constant": true,
      "inputs": [],
      "name": "TEAM_VESTING_PERIOD",
      "outputs": [
        {
          "name": "",
          "type": "uint256"
        }
      ],
      "payable": false,
      "stateMutability": "view",
      "type": "function"
    },
    {
      "constant": true,
      "inputs": [],
      "name": "getContribPeriod",
      "outputs": [
        {
          "name": "boolValues",
          "type": "bool[3]"
        },
        {
          "name": "uintValues",
          "type": "uint256[8]"
        }
      ],
      "payable": false,
      "stateMutability": "view",
      "type": "function"
    },
    {
      "constant": true,
      "inputs": [
        {
          "name": "dateTime",
          "type": "uint256"
        }
      ],
      "name": "getPrice",
      "outputs": [
        {
          "name": "",
          "type": "uint256"
        }
      ],
      "payable": false,
      "stateMutability": "view",
      "type": "function"
    },
    {
      "constant": false,
      "inputs": [
        {
          "name": "tokenAddr",
          "type": "address"
        }
      ],
      "name": "isTokenSaleToken",
      "outputs": [
        {
          "name": "",
          "type": "bool"
        }
      ],
      "payable": false,
      "stateMutability": "nonpayable",
      "type": "function"
    },
    {
      "constant": true,
      "inputs": [],
      "name": "CONTRIB_PERIOD1_STAKE",
      "outputs": [
        {
          "name": "",
          "type": "uint256"
        }
      ],
      "payable": false,
      "stateMutability": "view",
      "type": "function"
    },
    {
      "constant": false,
      "inputs": [
        {
          "name": "_owner",
          "type": "address"
        }
      ],
      "name": "proxyPayment",
      "outputs": [
        {
          "name": "",
          "type": "bool"
        }
      ],
      "payable": true,
      "stateMutability": "payable",
      "type": "function"
    },
    {
      "constant": false,
      "inputs": [
        {
          "name": "_tokenAiNetworkToken",
          "type": "address"
        }
      ],
      "name": "setTokenAiNetworkToken",
      "outputs": [],
      "payable": false,
      "stateMutability": "nonpayable",
      "type": "function"
    },
    {
      "constant": true,
      "inputs": [],
      "name": "FOUNDER5_STAKE",
      "outputs": [
        {
          "name": "",
          "type": "uint256"
        }
      ],
      "payable": false,
      "stateMutability": "view",
      "type": "function"
    },
    {
      "constant": true,
      "inputs": [],
      "name": "softCapAmount",
      "outputs": [
        {
          "name": "",
          "type": "uint256"
        }
      ],
      "payable": false,
      "stateMutability": "view",
      "type": "function"
    },
    {
      "constant": true,
      "inputs": [],
      "name": "founder3",
      "outputs": [
        {
          "name": "",
          "type": "address"
        }
      ],
      "payable": false,
      "stateMutability": "view",
      "type": "function"
    },
    {
      "constant": true,
      "inputs": [],
      "name": "FOUNDER1_STAKE",
      "outputs": [
        {
          "name": "",
          "type": "uint256"
        }
      ],
      "payable": false,
      "stateMutability": "view",
      "type": "function"
    },
    {
      "constant": false,
      "inputs": [
        {
          "name": "offset",
          "type": "uint256"
        },
        {
          "name": "limit",
          "type": "uint256"
        }
      ],
      "name": "compensateContributors",
      "outputs": [],
      "payable": false,
      "stateMutability": "nonpayable",
      "type": "function"
    },
    {
      "inputs": [
        {
          "name": "_multisigWallet",
          "type": "address"
        },
        {
          "name": "_givethWallet",
          "type": "address"
        },
        {
          "name": "_founder1",
          "type": "address"
        },
        {
          "name": "_founder2",
          "type": "address"
        },
        {
          "name": "_founder3",
          "type": "address"
        },
        {
          "name": "_founder4",
          "type": "address"
        },
        {
          "name": "_founder5",
          "type": "address"
        }
      ],
      "payable": false,
      "stateMutability": "nonpayable",
      "type": "constructor"
    },
    {
      "payable": true,
      "stateMutability": "payable",
      "type": "fallback"
    },
    {
      "anonymous": false,
      "inputs": [
        {
          "indexed": false,
          "name": "totalContributed1",
          "type": "uint256"
        },
        {
          "indexed": true,
          "name": "contributor",
          "type": "address"
        },
        {
          "indexed": false,
          "name": "amount",
          "type": "uint256"
        },
        {
          "indexed": false,
          "name": "contributorsCount",
          "type": "uint256"
        }
      ],
      "name": "onContribution",
      "type": "event"
    },
    {
      "anonymous": false,
      "inputs": [
        {
          "indexed": false,
          "name": "endTime1",
          "type": "uint256"
        }
      ],
      "name": "onSoftCapReached",
      "type": "event"
    },
    {
      "anonymous": false,
      "inputs": [
        {
          "indexed": false,
          "name": "endTime1",
          "type": "uint256"
        }
      ],
      "name": "onHardCapReached",
      "type": "event"
    },
    {
      "anonymous": false,
      "inputs": [
        {
          "indexed": true,
          "name": "contributor",
          "type": "address"
        },
        {
          "indexed": false,
          "name": "amount",
          "type": "uint256"
        }
      ],
      "name": "onCompensated",
      "type": "event"
    },
    {
      "anonymous": false,
      "inputs": [
        {
          "indexed": true,
          "name": "contributor",
          "type": "address"
        },
        {
          "indexed": false,
          "name": "amount",
          "type": "uint256"
        },
        {
          "indexed": false,
          "name": "price",
          "type": "uint256"
        }
      ],
      "name": "onPreContributionEvent",
      "type": "event"
    },
    {
      "anonymous": false,
      "inputs": [
        {
          "indexed": false,
          "name": "isStopped",
          "type": "bool"
        }
      ],
      "name": "onEmergencyChanged",
      "type": "event"
    }
  ],
  "bytecode": "0x6060604052662386f26fc10000600a556000600b60006101000a81548160ff0219169083151502179055506096600c556078600d556064600e556004600f55341561004957600080fd5b60405160e080614b8983398101604052808051906020019091908051906020019091908051906020019091908051906020019091908051906020019091908051906020019091908051906020019091905050336000806101000a81548173ffffffffffffffffffffffffffffffffffffffff021916908373ffffffffffffffffffffffffffffffffffffffff16021790555086600360006101000a81548173ffffffffffffffffffffffffffffffffffffffff021916908373ffffffffffffffffffffffffffffffffffffffff16021790555085600460006101000a81548173ffffffffffffffffffffffffffffffffffffffff021916908373ffffffffffffffffffffffffffffffffffffffff16021790555084600560006101000a81548173ffffffffffffffffffffffffffffffffffffffff021916908373ffffffffffffffffffffffffffffffffffffffff16021790555083600660006101000a81548173ffffffffffffffffffffffffffffffffffffffff021916908373ffffffffffffffffffffffffffffffffffffffff16021790555082600760006101000a81548173ffffffffffffffffffffffffffffffffffffffff021916908373ffffffffffffffffffffffffffffffffffffffff16021790555081600860006101000a81548173ffffffffffffffffffffffffffffffffffffffff021916908373ffffffffffffffffffffffffffffffffffffffff16021790555080600960006101000a81548173ffffffffffffffffffffffffffffffffffffffff021916908373ffffffffffffffffffffffffffffffffffffffff160217905550505050505050506148d1806102b86000396000f300606060405260043610610301576000357c0100000000000000000000000000000000000000000000000000000000900463ffffffff168063023f414714610328578063035d37a814610351578063116b556b1461037457806317ffc320146103c95780631d0806ae146104025780631f6d49421461042b57806323bba494146104915780632b9edee9146104d85780632cedc5ec146105055780633197cbb61461051a578063378dc3dc146105435780633d8270f51461056c57806344a2d0d2146105d2578063483fd4ec146106355780634a3931491461068a5780634c515fb51461070357806351ed96b91461072c5780635a3c0287146107415780635b55169c1461077a578063617fc592146107a357806363086b5e146107cc57806363a599a4146107f557806365cf3a481461080a57806365d1663d146108335780636938d9b0146108885780636aa633b6146108d35780636b65bf89146109005780636bd50cef146109295780636c098e7614610a935780636e0fb1c514610ae857806375f12b2114610b1157806378e9792514610b3e57806379ba509714610b675780637b3aa44114610b7c5780637e33a57c14610baa578063806ba6d614610bd357806380a2ddad14610c2857806386d1a69f14610c7d5780638c5597fd14610c925780638da5cb5b14610ca75780639075becf14610cfc5780639762f80214610d515780639d2cc43614610d7e578063a6b513ee14610da7578063a6f9dae114610dd0578063b6ac498414610e09578063b9bf068e14610e36578063c0ee0b8a14610eb7578063cf054fb214610f0d578063cfefe5a214610f36578063d4ee1d9014610f63578063d7bb99ba14610fb8578063da682aeb14610fc2578063e559c7241461103b578063e6f9476a14611064578063e7572230146110e4578063e7a05f081461111b578063e92b68181461116c578063f48c305414611195578063f720ef08146111db578063f8d8783814611214578063fb27961c1461123d578063fb38ec9414611266578063fced5694146112bb578063fdd96ae0146112e4575b600160149054906101000a900460ff1615151561031d57600080fd5b61032633611310565b005b341561033357600080fd5b61033b61195d565b6040518082815260200191505060405180910390f35b341561035c57600080fd5b6103726004808035906020019091905050611963565b005b341561037f57600080fd5b6103876119e7565b604051808273ffffffffffffffffffffffffffffffffffffffff1673ffffffffffffffffffffffffffffffffffffffff16815260200191505060405180910390f35b34156103d457600080fd5b610400600480803573ffffffffffffffffffffffffffffffffffffffff16906020019091905050611a0d565b005b341561040d57600080fd5b610415611c0f565b6040518082815260200191505060405180910390f35b341561043657600080fd5b610462600480803573ffffffffffffffffffffffffffffffffffffffff16906020019091905050611c15565b604051808581526020018481526020018315151515815260200182815260200194505050505060405180910390f35b341561049c57600080fd5b6104d66004808035906020019091908035906020019091908035906020019091908035906020019091908035906020019091905050611c52565b005b34156104e357600080fd5b6104eb612aca565b604051808215151515815260200191505060405180910390f35b341561051057600080fd5b610518612add565b005b341561052557600080fd5b61052d612b65565b6040518082815260200191505060405180910390f35b341561054e57600080fd5b610556612b6b565b6040518082815260200191505060405180910390f35b341561057757600080fd5b6105a3600480803573ffffffffffffffffffffffffffffffffffffffff16906020019091905050612b71565b604051808581526020018415151515815260200183815260200182815260200194505050505060405180910390f35b34156105dd57600080fd5b6105f36004808035906020019091905050612beb565b604051808273ffffffffffffffffffffffffffffffffffffffff1673ffffffffffffffffffffffffffffffffffffffff16815260200191505060405180910390f35b341561064057600080fd5b610648612c2a565b604051808273ffffffffffffffffffffffffffffffffffffffff1673ffffffffffffffffffffffffffffffffffffffff16815260200191505060405180910390f35b341561069557600080fd5b6106e9600480803573ffffffffffffffffffffffffffffffffffffffff1690602001909190803573ffffffffffffffffffffffffffffffffffffffff16906020019091908035906020019091905050612c50565b604051808215151515815260200191505060405180910390f35b341561070e57600080fd5b610716612cd7565b6040518082815260200191505060405180910390f35b341561073757600080fd5b61073f612cde565b005b341561074c57600080fd5b610778600480803573ffffffffffffffffffffffffffffffffffffffff16906020019091905050612d66565b005b341561078557600080fd5b61078d612eea565b6040518082815260200191505060405180910390f35b34156107ae57600080fd5b6107b6612ef0565b6040518082815260200191505060405180910390f35b34156107d757600080fd5b6107df612ef6565b6040518082815260200191505060405180910390f35b341561080057600080fd5b610808612efc565b005b341561081557600080fd5b61081d612fbd565b6040518082815260200191505060405180910390f35b341561083e57600080fd5b610846612fc3565b604051808273ffffffffffffffffffffffffffffffffffffffff1673ffffffffffffffffffffffffffffffffffffffff16815260200191505060405180910390f35b341561089357600080fd5b6108d1600480803573ffffffffffffffffffffffffffffffffffffffff16906020019091908035906020019091908035906020019091905050612fe9565b005b34156108de57600080fd5b6108e6613349565b604051808215151515815260200191505060405180910390f35b341561090b57600080fd5b61091361335c565b6040518082815260200191505060405180910390f35b341561093457600080fd5b61093c613369565b60405180891515151581526020018873ffffffffffffffffffffffffffffffffffffffff1673ffffffffffffffffffffffffffffffffffffffff1681526020018773ffffffffffffffffffffffffffffffffffffffff1673ffffffffffffffffffffffffffffffffffffffff1681526020018673ffffffffffffffffffffffffffffffffffffffff1673ffffffffffffffffffffffffffffffffffffffff1681526020018573ffffffffffffffffffffffffffffffffffffffff1673ffffffffffffffffffffffffffffffffffffffff1681526020018473ffffffffffffffffffffffffffffffffffffffff1673ffffffffffffffffffffffffffffffffffffffff1681526020018373ffffffffffffffffffffffffffffffffffffffff1673ffffffffffffffffffffffffffffffffffffffff168152602001821515151581526020019850505050505050505060405180910390f35b3415610a9e57600080fd5b610aa6613481565b604051808273ffffffffffffffffffffffffffffffffffffffff1673ffffffffffffffffffffffffffffffffffffffff16815260200191505060405180910390f35b3415610af357600080fd5b610afb6134a7565b6040518082815260200191505060405180910390f35b3415610b1c57600080fd5b610b246134b5565b604051808215151515815260200191505060405180910390f35b3415610b4957600080fd5b610b516134c8565b6040518082815260200191505060405180910390f35b3415610b7257600080fd5b610b7a6134ce565b005b610ba8600480803573ffffffffffffffffffffffffffffffffffffffff16906020019091905050611310565b005b3415610bb557600080fd5b610bbd613589565b6040518082815260200191505060405180910390f35b3415610bde57600080fd5b610be6613597565b604051808273ffffffffffffffffffffffffffffffffffffffff1673ffffffffffffffffffffffffffffffffffffffff16815260200191505060405180910390f35b3415610c3357600080fd5b610c3b6135bd565b604051808273ffffffffffffffffffffffffffffffffffffffff1673ffffffffffffffffffffffffffffffffffffffff16815260200191505060405180910390f35b3415610c8857600080fd5b610c906135e3565b005b3415610c9d57600080fd5b610ca56136c0565b005b3415610cb257600080fd5b610cba6139e7565b604051808273ffffffffffffffffffffffffffffffffffffffff1673ffffffffffffffffffffffffffffffffffffffff16815260200191505060405180910390f35b3415610d0757600080fd5b610d0f613a0c565b604051808273ffffffffffffffffffffffffffffffffffffffff1673ffffffffffffffffffffffffffffffffffffffff16815260200191505060405180910390f35b3415610d5c57600080fd5b610d64613a32565b604051808215151515815260200191505060405180910390f35b3415610d8957600080fd5b610d91613a45565b6040518082815260200191505060405180910390f35b3415610db257600080fd5b610dba613a52565b6040518082815260200191505060405180910390f35b3415610ddb57600080fd5b610e07600480803573ffffffffffffffffffffffffffffffffffffffff16906020019091905050613a58565b005b3415610e1457600080fd5b610e1c613af7565b604051808215151515815260200191505060405180910390f35b3415610e4157600080fd5b610e606004808035906020019091908035906020019091905050613b0a565b6040518080602001828103825283818151815260200191508051906020019060200280838360005b83811015610ea3578082015181840152602081019050610e88565b505050509050019250505060405180910390f35b3415610ec257600080fd5b610f0b600480803573ffffffffffffffffffffffffffffffffffffffff169060200190919080359060200190919080359060200190820180359060200191909192905050613caf565b005b3415610f1857600080fd5b610f20613cb4565b6040518082815260200191505060405180910390f35b3415610f4157600080fd5b610f49613cba565b604051808215151515815260200191505060405180910390f35b3415610f6e57600080fd5b610f76613cec565b604051808273ffffffffffffffffffffffffffffffffffffffff1673ffffffffffffffffffffffffffffffffffffffff16815260200191505060405180910390f35b610fc0613d12565b005b3415610fcd57600080fd5b611021600480803573ffffffffffffffffffffffffffffffffffffffff1690602001909190803573ffffffffffffffffffffffffffffffffffffffff16906020019091908035906020019091905050613d39565b604051808215151515815260200191505060405180910390f35b341561104657600080fd5b61104e613d54565b6040518082815260200191505060405180910390f35b341561106f57600080fd5b611077613d5c565b6040518083600360200280838360005b838110156110a2578082015181840152602081019050611087565b5050505090500182600860200280838360005b838110156110d05780820151818401526020810190506110b5565b505050509050019250505060405180910390f35b34156110ef57600080fd5b6111056004808035906020019091905050613ee3565b6040518082815260200191505060405180910390f35b341561112657600080fd5b611152600480803573ffffffffffffffffffffffffffffffffffffffff16906020019091905050613f5d565b604051808215151515815260200191505060405180910390f35b341561117757600080fd5b61117f613fb7565b6040518082815260200191505060405180910390f35b6111c1600480803573ffffffffffffffffffffffffffffffffffffffff16906020019091905050613fc5565b604051808215151515815260200191505060405180910390f35b34156111e657600080fd5b611212600480803573ffffffffffffffffffffffffffffffffffffffff16906020019091905050613fcc565b005b341561121f57600080fd5b611227614301565b6040518082815260200191505060405180910390f35b341561124857600080fd5b61125061430e565b6040518082815260200191505060405180910390f35b341561127157600080fd5b611279614314565b604051808273ffffffffffffffffffffffffffffffffffffffff1673ffffffffffffffffffffffffffffffffffffffff16815260200191505060405180910390f35b34156112c657600080fd5b6112ce61433a565b6040518082815260200191505060405180910390f35b34156112ef57600080fd5b61130e6004808035906020019091908035906020019091905050614348565b005b600080600080600080600160149054906101000a900460ff1615151561133557600080fd5b600a54341015151561134657600080fd5b61134e613cba565b156117355734955060009450601754935061137286856146be90919063ffffffff16565b601781905550601754925061138642613ee3565b9150601154831015801561139b575060115484105b15611410576001601660016101000a81548160ff0219169083151502179055506113d0426012546146be90919063ffffffff16565b6015819055507fde78be15d84d3d3bc9b53efece19934c9f9f1c988330a42270f82acb16f072696015546040518082815260200191505060405180910390a15b6013548310158015611423575060135484105b156114ce576001601660026101000a81548160ff021916908315150217905550426015819055507f0b597135d1b48577583d352aa1538ab86001c75e653f5502586f47d1004839546015546040518082815260200191505060405180910390a1611498601354846146dc90919063ffffffff16565b94506114ad85876146dc90919063ffffffff16565b95506114c285846146dc90919063ffffffff16565b92506013546017819055505b6000601960008973ffffffffffffffffffffffffffffffffffffffff1673ffffffffffffffffffffffffffffffffffffffff16815260200190815260200160002060030154141561157d576018805480600101828161152d91906147ed565b9160005260206000209001600089909190916101000a81548173ffffffffffffffffffffffffffffffffffffffff021916908373ffffffffffffffffffffffffffffffffffffffff160217905550505b6115db61158a83886146f5565b601960008a73ffffffffffffffffffffffffffffffffffffffff1673ffffffffffffffffffffffffffffffffffffffff168152602001908152602001600020600301546146be90919063ffffffff16565b601960008973ffffffffffffffffffffffffffffffffffffffff1673ffffffffffffffffffffffffffffffffffffffff16815260200190815260200160002060030181905550600360009054906101000a900473ffffffffffffffffffffffffffffffffffffffff1673ffffffffffffffffffffffffffffffffffffffff166108fc879081150290604051600060405180830381858888f19350505050151561168357600080fd5b60008511156116cd573373ffffffffffffffffffffffffffffffffffffffff166108fc869081150290604051600060405180830381858888f1935050505015156116cc57600080fd5b5b8673ffffffffffffffffffffffffffffffffffffffff167fa4343ae98cbe49a830f8d4239e189409bfc6939e7f70d8af07acd896d89580a5844260188054905060405180848152602001838152602001828152602001935050505060405180910390a2611954565b601454421015611953573490506000601960008973ffffffffffffffffffffffffffffffffffffffff1673ffffffffffffffffffffffffffffffffffffffff1681526020019081526020016000206003015414156117f157601880548060010182816117a191906147ed565b9160005260206000209001600089909190916101000a81548173ffffffffffffffffffffffffffffffffffffffff021916908373ffffffffffffffffffffffffffffffffffffffff160217905550505b6118476001601960008a73ffffffffffffffffffffffffffffffffffffffff1673ffffffffffffffffffffffffffffffffffffffff168152602001908152602001600020600301546146be90919063ffffffff16565b601960008973ffffffffffffffffffffffffffffffffffffffff1673ffffffffffffffffffffffffffffffffffffffff16815260200190815260200160002060030181905550600460009054906101000a900473ffffffffffffffffffffffffffffffffffffffff1673ffffffffffffffffffffffffffffffffffffffff166108fc829081150290604051600060405180830381858888f1935050505015156118ef57600080fd5b8673ffffffffffffffffffffffffffffffffffffffff167fa4343ae98cbe49a830f8d4239e189409bfc6939e7f70d8af07acd896d89580a5848360188054905060405180848152602001838152602001828152602001935050505060405180910390a25b5b50505050505050565b60175481565b6000809054906101000a900473ffffffffffffffffffffffffffffffffffffffff1673ffffffffffffffffffffffffffffffffffffffff163373ffffffffffffffffffffffffffffffffffffffff161415156119be57600080fd5b6000811115156119cd57600080fd5b426014541115156119dd57600080fd5b80600a8190555050565b600560009054906101000a900473ffffffffffffffffffffffffffffffffffffffff1681565b6000806000809054906101000a900473ffffffffffffffffffffffffffffffffffffffff1673ffffffffffffffffffffffffffffffffffffffff163373ffffffffffffffffffffffffffffffffffffffff16141515611a6b57600080fd5b611a7483613f5d565b151515611a8057600080fd5b8291508173ffffffffffffffffffffffffffffffffffffffff166370a08231306000604051602001526040518263ffffffff167c0100000000000000000000000000000000000000000000000000000000028152600401808273ffffffffffffffffffffffffffffffffffffffff1673ffffffffffffffffffffffffffffffffffffffff168152602001915050602060405180830381600087803b1515611b2657600080fd5b6102c65a03f11515611b3757600080fd5b5050506040518051905090508173ffffffffffffffffffffffffffffffffffffffff1663a9059cbb33836000604051602001526040518363ffffffff167c0100000000000000000000000000000000000000000000000000000000028152600401808373ffffffffffffffffffffffffffffffffffffffff1673ffffffffffffffffffffffffffffffffffffffff16815260200182815260200192505050602060405180830381600087803b1515611bee57600080fd5b6102c65a03f11515611bff57600080fd5b5050506040518051905050505050565b600c5481565b60196020528060005260406000206000915090508060000154908060010154908060020160009054906101000a900460ff16908060030154905084565b6000806000806000809054906101000a900473ffffffffffffffffffffffffffffffffffffffff1673ffffffffffffffffffffffffffffffffffffffff163373ffffffffffffffffffffffffffffffffffffffff16141515611cb357600080fd5b600089111515611cc257600080fd5b8887111515611cd057600080fd5b600088111515611cdf57600080fd5b4286111515611ced57600080fd5b8585111515611cfb57600080fd5b601660009054906101000a900460ff16151515611d1757600080fd5b8860118190555087601281905550866013819055508560148190555084601581905550600260009054906101000a900473ffffffffffffffffffffffffffffffffffffffff1673ffffffffffffffffffffffffffffffffffffffff1663d1698430600560009054906101000a900473ffffffffffffffffffffffffffffffffffffffff166040518263ffffffff167c0100000000000000000000000000000000000000000000000000000000028152600401808273ffffffffffffffffffffffffffffffffffffffff1673ffffffffffffffffffffffffffffffffffffffff168152602001915050600060405180830381600087803b1515611e1857600080fd5b6102c65a03f11515611e2957600080fd5b505050600260009054906101000a900473ffffffffffffffffffffffffffffffffffffffff1673ffffffffffffffffffffffffffffffffffffffff1663d1698430600660009054906101000a900473ffffffffffffffffffffffffffffffffffffffff166040518263ffffffff167c0100000000000000000000000000000000000000000000000000000000028152600401808273ffffffffffffffffffffffffffffffffffffffff1673ffffffffffffffffffffffffffffffffffffffff168152602001915050600060405180830381600087803b1515611f0a57600080fd5b6102c65a03f11515611f1b57600080fd5b505050600260009054906101000a900473ffffffffffffffffffffffffffffffffffffffff1673ffffffffffffffffffffffffffffffffffffffff1663d1698430600760009054906101000a900473ffffffffffffffffffffffffffffffffffffffff166040518263ffffffff167c0100000000000000000000000000000000000000000000000000000000028152600401808273ffffffffffffffffffffffffffffffffffffffff1673ffffffffffffffffffffffffffffffffffffffff168152602001915050600060405180830381600087803b1515611ffc57600080fd5b6102c65a03f1151561200d57600080fd5b505050600260009054906101000a900473ffffffffffffffffffffffffffffffffffffffff1673ffffffffffffffffffffffffffffffffffffffff1663d1698430600860009054906101000a900473ffffffffffffffffffffffffffffffffffffffff166040518263ffffffff167c0100000000000000000000000000000000000000000000000000000000028152600401808273ffffffffffffffffffffffffffffffffffffffff1673ffffffffffffffffffffffffffffffffffffffff168152602001915050600060405180830381600087803b15156120ee57600080fd5b6102c65a03f115156120ff57600080fd5b505050600260009054906101000a900473ffffffffffffffffffffffffffffffffffffffff1673ffffffffffffffffffffffffffffffffffffffff1663d1698430600960009054906101000a900473ffffffffffffffffffffffffffffffffffffffff166040518263ffffffff167c0100000000000000000000000000000000000000000000000000000000028152600401808273ffffffffffffffffffffffffffffffffffffffff1673ffffffffffffffffffffffffffffffffffffffff168152602001915050600060405180830381600087803b15156121e057600080fd5b6102c65a03f115156121f157600080fd5b50505061220d630375f0006014546146be90919063ffffffff16565b935061222762dd7c006014546146be90919063ffffffff16565b92506014549150600260009054906101000a900473ffffffffffffffffffffffffffffffffffffffff1673ffffffffffffffffffffffffffffffffffffffff16639754a4d9600560009054906101000a900473ffffffffffffffffffffffffffffffffffffffff166122a56902544faa778090e00000600c546146f5565b858789600160006040518863ffffffff167c0100000000000000000000000000000000000000000000000000000000028152600401808873ffffffffffffffffffffffffffffffffffffffff1673ffffffffffffffffffffffffffffffffffffffff1681526020018781526020018667ffffffffffffffff1667ffffffffffffffff1681526020018567ffffffffffffffff1667ffffffffffffffff1681526020018467ffffffffffffffff1667ffffffffffffffff1681526020018315151515815260200182151515158152602001975050505050505050600060405180830381600087803b151561239757600080fd5b6102c65a03f115156123a857600080fd5b505050600260009054906101000a900473ffffffffffffffffffffffffffffffffffffffff1673ffffffffffffffffffffffffffffffffffffffff16639754a4d9600660009054906101000a900473ffffffffffffffffffffffffffffffffffffffff166124226902544faa778090e00000600c546146f5565b858789600160006040518863ffffffff167c0100000000000000000000000000000000000000000000000000000000028152600401808873ffffffffffffffffffffffffffffffffffffffff1673ffffffffffffffffffffffffffffffffffffffff1681526020018781526020018667ffffffffffffffff1667ffffffffffffffff1681526020018567ffffffffffffffff1667ffffffffffffffff1681526020018467ffffffffffffffff1667ffffffffffffffff1681526020018315151515815260200182151515158152602001975050505050505050600060405180830381600087803b151561251457600080fd5b6102c65a03f1151561252557600080fd5b505050600260009054906101000a900473ffffffffffffffffffffffffffffffffffffffff1673ffffffffffffffffffffffffffffffffffffffff16639754a4d9600760009054906101000a900473ffffffffffffffffffffffffffffffffffffffff1661259f6901f0f1ae4b2705dc0000600c546146f5565b858789600160006040518863ffffffff167c0100000000000000000000000000000000000000000000000000000000028152600401808873ffffffffffffffffffffffffffffffffffffffff1673ffffffffffffffffffffffffffffffffffffffff1681526020018781526020018667ffffffffffffffff1667ffffffffffffffff1681526020018567ffffffffffffffff1667ffffffffffffffff1681526020018467ffffffffffffffff1667ffffffffffffffff1681526020018315151515815260200182151515158152602001975050505050505050600060405180830381600087803b151561269157600080fd5b6102c65a03f115156126a257600080fd5b505050600260009054906101000a900473ffffffffffffffffffffffffffffffffffffffff1673ffffffffffffffffffffffffffffffffffffffff16639754a4d9600860009054906101000a900473ffffffffffffffffffffffffffffffffffffffff1661271b68c6c9d90f66bd6c0000600c546146f5565b858789600160006040518863ffffffff167c0100000000000000000000000000000000000000000000000000000000028152600401808873ffffffffffffffffffffffffffffffffffffffff1673ffffffffffffffffffffffffffffffffffffffff1681526020018781526020018667ffffffffffffffff1667ffffffffffffffff1681526020018567ffffffffffffffff1667ffffffffffffffff1681526020018467ffffffffffffffff1667ffffffffffffffff1681526020018315151515815260200182151515158152602001975050505050505050600060405180830381600087803b151561280d57600080fd5b6102c65a03f1151561281e57600080fd5b505050600260009054906101000a900473ffffffffffffffffffffffffffffffffffffffff1673ffffffffffffffffffffffffffffffffffffffff16639754a4d9600960009054906101000a900473ffffffffffffffffffffffffffffffffffffffff1661289768c6c9d90f66bd6c0000600c546146f5565b858789600160006040518863ffffffff167c0100000000000000000000000000000000000000000000000000000000028152600401808873ffffffffffffffffffffffffffffffffffffffff1673ffffffffffffffffffffffffffffffffffffffff1681526020018781526020018667ffffffffffffffff1667ffffffffffffffff1681526020018567ffffffffffffffff1667ffffffffffffffff1681526020018467ffffffffffffffff1667ffffffffffffffff1681526020018315151515815260200182151515158152602001975050505050505050600060405180830381600087803b151561298957600080fd5b6102c65a03f1151561299a57600080fd5b5050506129b268ee86442fcd06c00000600c546146f5565b9050600260009054906101000a900473ffffffffffffffffffffffffffffffffffffffff1673ffffffffffffffffffffffffffffffffffffffff1663a9059cbb600360009054906101000a900473ffffffffffffffffffffffffffffffffffffffff16836000604051602001526040518363ffffffff167c0100000000000000000000000000000000000000000000000000000000028152600401808373ffffffffffffffffffffffffffffffffffffffff1673ffffffffffffffffffffffffffffffffffffffff16815260200182815260200192505050602060405180830381600087803b1515612aa357600080fd5b6102c65a03f11515612ab457600080fd5b5050506040518051905050505050505050505050565b601660019054906101000a900460ff1681565b6000809054906101000a900473ffffffffffffffffffffffffffffffffffffffff1673ffffffffffffffffffffffffffffffffffffffff163373ffffffffffffffffffffffffffffffffffffffff16141515612b3857600080fd5b42601554101515612b4857600080fd5b6001600b60006101000a81548160ff021916908315150217905550565b60155481565b60105481565b6000806000806000601960008773ffffffffffffffffffffffffffffffffffffffff1673ffffffffffffffffffffffffffffffffffffffff168152602001908152602001600020905080600001548160020160009054906101000a900460ff16826003015483600101549450945094509450509193509193565b601881815481101515612bfa57fe5b90600052602060002090016000915054906101000a900473ffffffffffffffffffffffffffffffffffffffff1681565b600460009054906101000a900473ffffffffffffffffffffffffffffffffffffffff1681565b6000600b60009054906101000a900460ff1680612c9857503073ffffffffffffffffffffffffffffffffffffffff168473ffffffffffffffffffffffffffffffffffffffff16145b80612cce57503073ffffffffffffffffffffffffffffffffffffffff168373ffffffffffffffffffffffffffffffffffffffff16145b90509392505050565b62dd7c0081565b6000809054906101000a900473ffffffffffffffffffffffffffffffffffffffff1673ffffffffffffffffffffffffffffffffffffffff163373ffffffffffffffffffffffffffffffffffffffff16141515612d3957600080fd5b42601454111515612d4957600080fd5b6001601660006101000a81548160ff021916908315150217905550565b6000809054906101000a900473ffffffffffffffffffffffffffffffffffffffff1673ffffffffffffffffffffffffffffffffffffffff163373ffffffffffffffffffffffffffffffffffffffff16141515612dc157600080fd5b600260009054906101000a900473ffffffffffffffffffffffffffffffffffffffff1673ffffffffffffffffffffffffffffffffffffffff166369ffa08a82600360009054906101000a900473ffffffffffffffffffffffffffffffffffffffff166040518363ffffffff167c0100000000000000000000000000000000000000000000000000000000028152600401808373ffffffffffffffffffffffffffffffffffffffff1673ffffffffffffffffffffffffffffffffffffffff1681526020018273ffffffffffffffffffffffffffffffffffffffff1673ffffffffffffffffffffffffffffffffffffffff16815260200192505050600060405180830381600087803b1515612ed357600080fd5b6102c65a03f11515612ee457600080fd5b50505050565b600a5481565b600f5481565b60125481565b6000809054906101000a900473ffffffffffffffffffffffffffffffffffffffff1673ffffffffffffffffffffffffffffffffffffffff163373ffffffffffffffffffffffffffffffffffffffff16141515612f5757600080fd5b60018060146101000a81548160ff0219169083151502179055507f69599168a4e7e4dfdab47666c80b8f4e4f2ddbf94fffbd241f7b9448dbc9f249600160149054906101000a900460ff16604051808215151515815260200191505060405180910390a1565b600e5481565b600260009054906101000a900473ffffffffffffffffffffffffffffffffffffffff1681565b6000806000806014544210801561300d5750601660009054906101000a900460ff16155b151561301857600080fd5b8660008173ffffffffffffffffffffffffffffffffffffffff161415151561303f57600080fd5b6000809054906101000a900473ffffffffffffffffffffffffffffffffffffffff1673ffffffffffffffffffffffffffffffffffffffff163373ffffffffffffffffffffffffffffffffffffffff1614151561309a57600080fd5b601660019054906101000a900460ff161515156130b657600080fd5b8694506000935060175492506130d585846146be90919063ffffffff16565b601781905550601754915060115482101580156130f3575060115483105b15613196576001601660016101000a81548160ff0219169083151502179055507fde78be15d84d3d3bc9b53efece19934c9f9f1c988330a42270f82acb16f0726960016040518082815260200191505060405180910390a1613160601154836146dc90919063ffffffff16565b935061317584866146dc90919063ffffffff16565b945061318a84836146dc90919063ffffffff16565b91506011546017819055505b6000601960008a73ffffffffffffffffffffffffffffffffffffffff1673ffffffffffffffffffffffffffffffffffffffff16815260200190815260200160002060030154141561324557601880548060010182816131f591906147ed565b916000526020600020900160008a909190916101000a81548173ffffffffffffffffffffffffffffffffffffffff021916908373ffffffffffffffffffffffffffffffffffffffff160217905550505b6132a361325287876146f5565b601960008b73ffffffffffffffffffffffffffffffffffffffff1673ffffffffffffffffffffffffffffffffffffffff168152602001908152602001600020600301546146be90919063ffffffff16565b601960008a73ffffffffffffffffffffffffffffffffffffffff1673ffffffffffffffffffffffffffffffffffffffff168152602001908152602001600020600301819055508773ffffffffffffffffffffffffffffffffffffffff167f6b9a9c8c07e6f2b2642a0ee85f4c2b930992cdcd2993ca22c7c7b97ae4298ba28688604051808381526020018281526020019250505060405180910390a25050505050505050565b601660009054906101000a900460ff1681565b68c6c9d90f66bd6c000081565b600080600080600080600080600160149054906101000a900460ff16600360009054906101000a900473ffffffffffffffffffffffffffffffffffffffff16600560009054906101000a900473ffffffffffffffffffffffffffffffffffffffff16600660009054906101000a900473ffffffffffffffffffffffffffffffffffffffff16600760009054906101000a900473ffffffffffffffffffffffffffffffffffffffff16600860009054906101000a900473ffffffffffffffffffffffffffffffffffffffff16600960009054906101000a900473ffffffffffffffffffffffffffffffffffffffff16600b60009054906101000a900460ff16975097509750975097509750975097509091929394959697565b600960009054906101000a900473ffffffffffffffffffffffffffffffffffffffff1681565b6902544faa778090e0000081565b600160149054906101000a900460ff1681565b60145481565b600160009054906101000a900473ffffffffffffffffffffffffffffffffffffffff1673ffffffffffffffffffffffffffffffffffffffff163373ffffffffffffffffffffffffffffffffffffffff16141561358757600160009054906101000a900473ffffffffffffffffffffffffffffffffffffffff166000806101000a81548173ffffffffffffffffffffffffffffffffffffffff021916908373ffffffffffffffffffffffffffffffffffffffff1602179055505b565b6901f0f1ae4b2705dc000081565b600660009054906101000a900473ffffffffffffffffffffffffffffffffffffffff1681565b600860009054906101000a900473ffffffffffffffffffffffffffffffffffffffff1681565b6000809054906101000a900473ffffffffffffffffffffffffffffffffffffffff1673ffffffffffffffffffffffffffffffffffffffff163373ffffffffffffffffffffffffffffffffffffffff1614151561363e57600080fd5b600160149054906101000a900460ff16151561365957600080fd5b6000600160146101000a81548160ff0219169083151502179055507f69599168a4e7e4dfdab47666c80b8f4e4f2ddbf94fffbd241f7b9448dbc9f249600160149054906101000a900460ff16604051808215151515815260200191505060405180910390a1565b6000809054906101000a900473ffffffffffffffffffffffffffffffffffffffff1673ffffffffffffffffffffffffffffffffffffffff163373ffffffffffffffffffffffffffffffffffffffff1614151561371b57600080fd5b4260155410151561372b57600080fd5b600260009054906101000a900473ffffffffffffffffffffffffffffffffffffffff1673ffffffffffffffffffffffffffffffffffffffff1663d3ce77fe30600260009054906101000a900473ffffffffffffffffffffffffffffffffffffffff1673ffffffffffffffffffffffffffffffffffffffff166370a08231306000604051602001526040518263ffffffff167c0100000000000000000000000000000000000000000000000000000000028152600401808273ffffffffffffffffffffffffffffffffffffffff1673ffffffffffffffffffffffffffffffffffffffff168152602001915050602060405180830381600087803b151561382f57600080fd5b6102c65a03f1151561384057600080fd5b505050604051805190506000604051602001526040518363ffffffff167c0100000000000000000000000000000000000000000000000000000000028152600401808373ffffffffffffffffffffffffffffffffffffffff1673ffffffffffffffffffffffffffffffffffffffff16815260200182815260200192505050602060405180830381600087803b15156138d757600080fd5b6102c65a03f115156138e857600080fd5b5050506040518051905050600260009054906101000a900473ffffffffffffffffffffffffffffffffffffffff1673ffffffffffffffffffffffffffffffffffffffff16633cebb823600360009054906101000a900473ffffffffffffffffffffffffffffffffffffffff166040518263ffffffff167c0100000000000000000000000000000000000000000000000000000000028152600401808273ffffffffffffffffffffffffffffffffffffffff1673ffffffffffffffffffffffffffffffffffffffff168152602001915050600060405180830381600087803b15156139d157600080fd5b6102c65a03f115156139e257600080fd5b505050565b6000809054906101000a900473ffffffffffffffffffffffffffffffffffffffff1681565b600360009054906101000a900473ffffffffffffffffffffffffffffffffffffffff1681565b601660029054906101000a900460ff1681565b68ee86442fcd06c0000081565b600d5481565b6000809054906101000a900473ffffffffffffffffffffffffffffffffffffffff1673ffffffffffffffffffffffffffffffffffffffff163373ffffffffffffffffffffffffffffffffffffffff16141515613ab357600080fd5b80600160006101000a81548173ffffffffffffffffffffffffffffffffffffffff021916908373ffffffffffffffffffffffffffffffffffffffff16021790555050565b600b60009054906101000a900460ff1681565b613b12614819565b6000806000613b1f614819565b60188054905093506000861415613b34578395505b8692506000915085604051805910613b495750595b908082528060200260200182016040525090505b8383108015613b6b57508582105b15613c335760196000601885815481101515613b8357fe5b906000526020600020900160009054906101000a900473ffffffffffffffffffffffffffffffffffffffff1673ffffffffffffffffffffffffffffffffffffffff1673ffffffffffffffffffffffffffffffffffffffff16815260200190815260200160002060020160009054906101000a900460ff161515613c2657828183815181101515613c0f57fe5b906020019060200201818152505081806001019250505b8280600101935050613b5d565b81604051805910613c415750595b90808252806020026020018201604052509450600092505b81831015613ca2578083815181101515613c6f57fe5b906020019060200201518584815181101515613c8757fe5b90602001906020020181815250508280600101935050613c59565b8494505050505092915050565b600080fd5b60135481565b6000601660009054906101000a900460ff168015613cda57504260145411155b8015613ce7575042601554115b905090565b600160009054906101000a900473ffffffffffffffffffffffffffffffffffffffff1681565b600160149054906101000a900460ff16151515613d2e57600080fd5b613d3733611310565b565b6000600b60009054906101000a900460ff1690509392505050565b630375f00081565b613d6461482d565b613d6c614857565b601660009054906101000a900460ff16826000600381101515613d8b57fe5b602002019015159081151581525050601660019054906101000a900460ff16826001600381101515613db957fe5b602002019015159081151581525050601660029054906101000a900460ff16826002600381101515613de757fe5b602002019015159081151581525050601154816000600881101515613e0857fe5b602002018181525050601254816001600881101515613e2357fe5b602002018181525050601354816002600881101515613e3e57fe5b602002018181525050601454816003600881101515613e5957fe5b602002018181525050601554816004600881101515613e7457fe5b602002018181525050601754816005600881101515613e8f57fe5b602002018181525050601880549050816006600881101515613ead57fe5b6020020181815250506926d28e5996d688d80000816007600881101515613ed057fe5b6020020181815250508181915091509091565b6000806000601454841080613efa57506015548410155b15613f085760009250613f56565b613f166015546014546146dc565b9150613f2382601e614728565b9050613f31601554826146dc565b841115613f4257600e549250613f56565b613f53613f4e85614743565b614784565b92505b5050919050565b60008173ffffffffffffffffffffffffffffffffffffffff16600260009054906101000a900473ffffffffffffffffffffffffffffffffffffffff1673ffffffffffffffffffffffffffffffffffffffff16149050919050565b6926d28e5996d688d8000081565b6000806000fd5b6000809054906101000a900473ffffffffffffffffffffffffffffffffffffffff1673ffffffffffffffffffffffffffffffffffffffff163373ffffffffffffffffffffffffffffffffffffffff1614151561402757600080fd5b60008173ffffffffffffffffffffffffffffffffffffffff161415151561404d57600080fd5b601660009054906101000a900460ff1615151561406957600080fd5b80600260006101000a81548173ffffffffffffffffffffffffffffffffffffffff021916908373ffffffffffffffffffffffffffffffffffffffff1602179055506000600260009054906101000a900473ffffffffffffffffffffffffffffffffffffffff1673ffffffffffffffffffffffffffffffffffffffff166318160ddd6000604051602001526040518163ffffffff167c0100000000000000000000000000000000000000000000000000000000028152600401602060405180830381600087803b151561413a57600080fd5b6102c65a03f1151561414b57600080fd5b5050506040518051905014156142fe576142016926d28e5996d688d800006141f368ee86442fcd06c000006141e568c6c9d90f66bd6c00006141d768c6c9d90f66bd6c00006141c96901f0f1ae4b2705dc00006141bb6902544faa778090e00000806146be90919063ffffffff16565b6146be90919063ffffffff16565b6146be90919063ffffffff16565b6146be90919063ffffffff16565b6146be90919063ffffffff16565b6146be90919063ffffffff16565b601081905550600260009054906101000a900473ffffffffffffffffffffffffffffffffffffffff1673ffffffffffffffffffffffffffffffffffffffff1663827f32c030614254601054600c546146f5565b6000604051602001526040518363ffffffff167c0100000000000000000000000000000000000000000000000000000000028152600401808373ffffffffffffffffffffffffffffffffffffffff1673ffffffffffffffffffffffffffffffffffffffff16815260200182815260200192505050602060405180830381600087803b15156142e157600080fd5b6102c65a03f115156142f257600080fd5b50505060405180519050505b50565b68c6c9d90f66bd6c000081565b60115481565b600760009054906101000a900473ffffffffffffffffffffffffffffffffffffffff1681565b6902544faa778090e0000081565b6000806000806000809054906101000a900473ffffffffffffffffffffffffffffffffffffffff1673ffffffffffffffffffffffffffffffffffffffff163373ffffffffffffffffffffffffffffffffffffffff161415156143a957600080fd5b601660009054906101000a900460ff1615156143c457600080fd5b426015541015156143d457600080fd5b8593506000925060188054905091505b81841080156143f257508483105b156146b65760188481548110151561440657fe5b906000526020600020900160009054906101000a900473ffffffffffffffffffffffffffffffffffffffff169050601960008273ffffffffffffffffffffffffffffffffffffffff1673ffffffffffffffffffffffffffffffffffffffff16815260200190815260200160002060020160009054906101000a900460ff1615156146a957600260009054906101000a900473ffffffffffffffffffffffffffffffffffffffff1673ffffffffffffffffffffffffffffffffffffffff1663a9059cbb82601960008573ffffffffffffffffffffffffffffffffffffffff1673ffffffffffffffffffffffffffffffffffffffff168152602001908152602001600020600301546000604051602001526040518363ffffffff167c0100000000000000000000000000000000000000000000000000000000028152600401808373ffffffffffffffffffffffffffffffffffffffff1673ffffffffffffffffffffffffffffffffffffffff16815260200182815260200192505050602060405180830381600087803b151561459957600080fd5b6102c65a03f115156145aa57600080fd5b50505060405180519050506001601960008373ffffffffffffffffffffffffffffffffffffffff1673ffffffffffffffffffffffffffffffffffffffff16815260200190815260200160002060020160006101000a81548160ff0219169083151502179055508073ffffffffffffffffffffffffffffffffffffffff167fb64dc853912fd4236096ea16135dfd31390c1c729643cc9c97e48536d5efdea7601960008473ffffffffffffffffffffffffffffffffffffffff1673ffffffffffffffffffffffffffffffffffffffff168152602001908152602001600020600301546040518082815260200191505060405180910390a282806001019350505b83806001019450506143e4565b505050505050565b60008082840190506146d2848210156147de565b8091505092915050565b60006146ea838311156147de565b818303905092915050565b600080828402905061471e6000851480614719575083858381151561471657fe5b04145b6147de565b8091505092915050565b600080828481151561473657fe5b0490508091505092915050565b6000806000614754846014546146dc565b91506147646015546014546146dc565b905061477b614775600f54846146f5565b82614728565b92505050919050565b6000806000600f548460ff1610151561479c57600080fd5b6147aa600c54600d546146dc565b91506147bb826001600f5403614728565b90506147d5600c546147d08660ff16846146f5565b6146dc565b92505050919050565b8015156147ea57600080fd5b50565b815481835581811511614814578183600052602060002091820191016148139190614880565b5b505050565b602060405190810160405280600081525090565b6060604051908101604052806003905b6000151581526020019060019003908161483d5790505090565b610100604051908101604052806008905b60008152602001906001900390816148685790505090565b6148a291905b8082111561489e576000816000905550600101614886565b5090565b905600a165627a7a723058202d1a26c3dd97892e86b1268eb9ff7a08a7559be6b790bbc9b567f7ea6e2a3be70029",
  "source": "pragma solidity ^0.4.14;\n\n/*\n    Copyright 2017, Ilana Fraines TokenAi\n    With heavy influence from District0xContribution.sol and AragonDev\n\n    This program is free software: you can redistribute it and/or modify\n    it under the terms of the GNU General Public License as published by\n    the Free Software Foundation, either version 3 of the License, or\n    (at your option) any later version.\n\n    This program is distributed in the hope that it will be useful,\n    but WITHOUT ANY WARRANTY; without even the implied warranty of\n    MERCHANTABILITY or FITNESS FOR A PARTICULAR PURPOSE.  See the\n    GNU General Public License for more details.\n\n    You should have received a copy of the GNU General Public License\n    along with this program.  If not, see <http://www.gnu.org/licenses/>.\n*/\n\nimport \"./SafeMath.sol\";\nimport \"./TokenAiNetworkToken.sol\";\nimport \"./Ownable.sol\";\nimport \"./Pausable.sol\";\nimport \"./HasNoTokens.sol\";\nimport \"./interface/TokenController.sol\";\n\ncontract TokenAiContribution is Pausable, HasNoTokens, TokenController {\n    using SafeMath for uint;\n\n    TokenAiNetworkToken public tokenAiNetworkToken;\n    address public multisigWallet;                                      // Wallet that receives all sale funds\n    address public givethWallet;                                        // Giveth team Wallet that receives funds sent before sale start time\n    address public founder1;                                            // Wallet of founder 1\n    address public founder2;                                            // Wallet of founder 2\n    address public founder3;                                            // Wallet of founder 3\n    address public founder4;                                            // Wallet of founder 4\n    address public founder5;                                            // Wallet of founder 5\n\n    uint public constant FOUNDER1_STAKE =  11000000000000000000000;                       //wei\n    uint public constant FOUNDER2_STAKE =  11000000000000000000000;                       //wei\n    uint public constant FOUNDER3_STAKE = 9167000000000000000000;                         //wei\n    uint public constant FOUNDER4_STAKE = 3667000000000000000000;                         //wei\n    uint public constant FOUNDER5_STAKE = 3667000000000000000000;                         //wei\n\n    uint public constant RESERVE = 4400000000000000000000;                                //wei\n    uint public constant CONTRIB_PERIOD1_STAKE = 183334000000000000000000;                //wei\n    uint public minContribAmount = 0.01 ether;                                            // 0.01 ether\n\n    uint public constant TEAM_VESTING_CLIFF = 24 weeks;                 // 6 months vesting cliff for founders and advisors, except community advisors\n    uint public constant TEAM_VESTING_PERIOD = 96 weeks;                // 2 years vesting period for founders and advisors, except community advisors\n\n    bool public tokenTransfersEnabled = false;                          // TAI token transfers will be enabled manually\n                                                                        // after contribution period\n                                                                        // Can't be disabled back\n    uint public initialPrice = 150;                                     // Number of TAI tokens for 1 eth, at the start of the sale\n    uint public finalPrice = 120;                                       // Number of TAI tokens for 1 eth, at the end of the sale\n    uint public bonusPrice = 100;                                       // Number of TAI tokens for 1 eth, in the 24hr bonus sale\n\n    uint public priceStages = 4;                                        // Number of different price stages for interpolating between initialPrice and finalPrice\n\n    struct Contributor {\n        uint amount;                                                    // Amount of ETH contributed by an address in given contribution period\n        uint price;                                                     // price qualified\n        bool isCompensated;                                             // Whether this contributor received TAI token for ETH contribution\n        uint amountCompensated;                                         // Amount of TAI received. Not really needed to store,\n                                                                        // but stored for accounting and security purposes\n    }\n    uint public initialSupply;                                          // Number of TAI tokens generated\n    uint public softCapAmount;                                          // Soft cap of contribution period in wei\n    uint public afterSoftCapDuration;                                   // Number of seconds to the end of sale from the moment of reaching soft cap (unless reaching hardcap)\n    uint public hardCapAmount;                                          // When reached this amount of wei, the contribution will end instantly\n    uint public startTime;                                              // Start time of contribution period in UNIX time\n    uint public endTime;                                                // End time of contribution period in UNIX time\n    bool public isEnabled;                                              // If contribution period was enabled by multisignature\n    bool public softCapReached;                                         // If soft cap was reached\n    bool public hardCapReached;                                         // If hard cap was reached\n    uint public totalContributed;                                       // Total amount of wei contributed in given period\n    address[] public contributorsKeys;                                  // Addresses of all contributors in given contribution period\n    mapping (address => Contributor) public contributors;\n\n    event onContribution(uint totalContributed1, address indexed contributor, uint amount,\n        uint contributorsCount);\n    event onSoftCapReached(uint endTime1);\n    event onHardCapReached(uint endTime1);\n    event onCompensated(address indexed contributor, uint amount);\n    event onPreContributionEvent(address indexed contributor, uint amount, uint price);\n\n    modifier nonZeroAddress(address x) {\n        require (x != 0);\n        _;\n    }\n\n    modifier onlyBeforeEvent {\n      require (now < startTime && !isEnabled );\n      _;\n    }\n\n    function TokenAiContribution(\n        address _multisigWallet,\n        address _givethWallet,\n        address _founder1,\n        address _founder2,\n        address _founder3,\n        address _founder4,\n        address _founder5\n    ) {\n        multisigWallet = _multisigWallet;\n        givethWallet = _givethWallet;\n        founder1 = _founder1;\n        founder2 = _founder2;\n        founder3 = _founder3;\n        founder4 = _founder4;\n        founder5 = _founder5;\n    }\n\n    // @notice Returns true if contribution period is currently running\n    function isContribPeriodRunning() constant returns (bool) {\n        return isEnabled &&\n               startTime <= now &&\n               endTime > now;\n    }\n\n     function contribute()\n        payable\n        stopInEmergency\n    {\n        contributeWithAddress(msg.sender);\n    }\n\n    // @notice Function to participate in contribution period\n    // Amounts from the same address should be added up\n    // If soft or hard cap is reached, end time should be modified\n    // Funds should be transferred into multisig wallet\n    // @param contributor Address that will receive TAI token\n    function contributeWithAddress(address contributor)\n        payable\n        stopInEmergency\n    {\n        require(msg.value >= minContribAmount);\n        if ( isContribPeriodRunning() ) {\n          uint contribValue = msg.value;\n          uint excessContribValue = 0;\n\n          uint oldTotalContributed = totalContributed;\n\n          totalContributed = oldTotalContributed.add(contribValue);\n\n          uint newTotalContributed = totalContributed;\n          uint price = getPrice(now);\n          // Soft cap was reached\n          if (newTotalContributed >= softCapAmount &&\n              oldTotalContributed < softCapAmount)\n          {\n              softCapReached = true;\n              endTime = afterSoftCapDuration.add(now);\n              onSoftCapReached(endTime);\n          }\n          // Hard cap was reached\n          if (newTotalContributed >= hardCapAmount &&\n              oldTotalContributed < hardCapAmount)\n          {\n              hardCapReached = true;\n              endTime = now;\n              onHardCapReached(endTime);\n\n              // Everything above hard cap will be sent back to contributor\n              excessContribValue = newTotalContributed.sub(hardCapAmount);\n              contribValue = contribValue.sub(excessContribValue);\n              newTotalContributed = newTotalContributed.sub(excessContribValue);\n\n              totalContributed = hardCapAmount;\n          }\n\n          if (contributors[contributor].amountCompensated == 0) {\n              contributorsKeys.push(contributor);\n          }\n          contributors[contributor].amountCompensated = contributors[contributor].amountCompensated.add(SafeMath.mul(price,contribValue));\n          //transfer contrution to multisigWallet\n          multisigWallet.transfer(contribValue);\n          if (excessContribValue > 0) {\n              msg.sender.transfer(excessContribValue);\n          }\n          onContribution(newTotalContributed, contributor, (now), contributorsKeys.length);\n        } else if(now < startTime) {\n          uint contribValue1 = msg.value;\n          if (contributors[contributor].amountCompensated == 0) {\n              contributorsKeys.push(contributor);\n          }\n          //contributors[contributor].price = SafeMath.div(1,1000000000000000000);\n          //contributors[contributor].amount = contributors[contributor].amount.add(contribValue);\n          contributors[contributor].amountCompensated = contributors[contributor].amountCompensated.add(1);\n          //transfer contrution to giveth wallet if user tries to contribut in advance of sale\n          givethWallet.transfer(contribValue1);\n          onContribution(newTotalContributed, contributor, contribValue1, contributorsKeys.length);\n        }\n    }\n\n    // @notice This method is called by owner after contribution period ends, to distribute TAI based on the stage of purchase and price\n    // Each contributor should receive TAI just once even if this method is called multiple times\n    // In case of many contributors must be able to compensate contributors in paginational way, otherwise might\n    // run out of gas if wanted to compensate all on one method call. Therefore parameters offset and limit\n    // @param offset Number of first contributors to skip.\n    // @param limit Max number of contributors compensated on this call\n    function compensateContributors(uint offset, uint limit)\n        onlyOwner\n    {\n        require(isEnabled);\n        require(endTime < now);\n\n        uint i = offset;\n        uint compensatedCount = 0;\n        uint contributorsCount = contributorsKeys.length;\n\n        while (i < contributorsCount && compensatedCount < limit) {\n            address contributorAddress = contributorsKeys[i];\n            if (!contributors[contributorAddress].isCompensated) {\n                tokenAiNetworkToken.transfer(contributorAddress, contributors[contributorAddress].amountCompensated);\n                contributors[contributorAddress].isCompensated = true;\n                onCompensated(contributorAddress, contributors[contributorAddress].amountCompensated);\n\n                compensatedCount++;\n            }\n            i++;\n        }\n    }\n\n    // @notice TokenAi needs to make initial token allocations for presale partners\n    // This allocation has to be made before the sale is activated. Activating the sale means no more\n    // arbitrary allocations are possible and expresses conformity.\n    // @param contributor: The contributors address.\n    // @param weiAmount: Amount of wei contributed.\n    // @param taiPerEth: taiPerEth of TAI per eth.\n    function allocatePresaleTokens(address contributor, uint weiAmount, uint price)\n             onlyBeforeEvent\n             nonZeroAddress(contributor)\n             onlyOwner\n             public {\n      require(!softCapReached);\n      uint contribValue = weiAmount;\n      uint excessContribValue = 0;\n\n      uint oldTotalContributed = totalContributed;\n\n      totalContributed = oldTotalContributed.add(contribValue);\n\n      uint newTotalContributed = totalContributed;\n        // Soft cap was reached\n      if (newTotalContributed >= softCapAmount &&\n                   oldTotalContributed < softCapAmount)\n        {\n            softCapReached = true;\n            onSoftCapReached(1);\n            // Everything above soft cap will not be accepted\n            excessContribValue = newTotalContributed.sub(softCapAmount);\n            contribValue = contribValue.sub(excessContribValue);\n            newTotalContributed = newTotalContributed.sub(excessContribValue);\n\n            totalContributed = softCapAmount;\n\n        }\n\n        if (contributors[contributor].amountCompensated == 0) {\n            contributorsKeys.push(contributor);\n        }\n        //contributors[contributor].price = price;\n        //contributors[contributor].amount = contributors[contributor].amount.add(weiAmount);\n\n        contributors[contributor].amountCompensated = contributors[contributor].amountCompensated.add(SafeMath.mul(price,contribValue));\n\n        onPreContributionEvent(contributor, contribValue, price);\n    }\n\n    // @notice Gets what the price is for a given stage\n    // @param stage: Stage number\n    // @return price per eth for that stage.\n    function priceForStage(uint8 stage) constant internal returns (uint) {\n        require (stage < priceStages);\n        uint priceDifference = SafeMath.sub(initialPrice, finalPrice);\n        uint stageDelta = SafeMath.div(priceDifference, uint(priceStages - 1));\n        return SafeMath.sub(initialPrice, SafeMath.mul(stage, stageDelta));\n    }\n    // @notice Gets what the stage is for a given date and time\n    // @param datetime: UNIX time\n    // @return The sale stage for that date time. Stage is between 0 and (priceStages - 1)\n    function stageForDate(uint dateTime) constant internal returns (uint) {\n        uint current = SafeMath.sub(dateTime, startTime);\n        uint totalTime = SafeMath.sub(endTime, startTime);\n\n        return SafeMath.div(SafeMath.mul(priceStages, current), totalTime);\n    }\n\n    // @notice Get the price for a TAI token at any given date\n    // @param dateTime for which the price is requested\n    // @return Number of eth-TAI for 1 eth\n    // If sale isn't ongoing for that time, returns 0.\n    //Last 1/30 the bonus period price\n    function getPrice(uint dateTime) constant public returns (uint) {\n      if (dateTime < startTime || dateTime >= endTime) return 0;\n      uint totalTime = SafeMath.sub(endTime, startTime);\n      uint last30th = SafeMath.div(totalTime,30);\n\n      if(dateTime > SafeMath.sub(endTime,last30th)){\n        return bonusPrice;\n      } else{\n          return priceForStage(uint8(stageForDate(dateTime)));\n      }\n    }\n\n    // @notice Method for setting up contribution period\n    // Only owner should be able to execute\n    // Setting first contribution period sets up vesting for founders & advisors\n    // Contribution period should still not be enabled after calling this method\n    // @param softCapAmount Soft Cap in eth\n    // @param afterSoftCapDuration Number of seconds till the end of sale in the moment of reaching soft cap (unless reaching hard cap)\n    // @param hardCapAmount Hard Cap in eth\n    // @param startTime Contribution start time in UNIX time\n    // @param endTime Contribution end time in UNIX time\n    function setContribPeriod(\n        uint _softCapAmount,\n        uint _afterSoftCapDuration,\n        uint _hardCapAmount,\n        uint _startTime,\n        uint _endTime\n    )\n        onlyOwner\n    {\n        require(_softCapAmount > 0);\n        require(_hardCapAmount > _softCapAmount);\n        require(_afterSoftCapDuration > 0);\n        require(_startTime > now);\n        require(_endTime > _startTime);\n        require(!isEnabled);\n\n        softCapAmount = _softCapAmount;\n        afterSoftCapDuration = _afterSoftCapDuration;\n        hardCapAmount = _hardCapAmount;\n        startTime = _startTime;\n        endTime = _endTime;\n\n       tokenAiNetworkToken.revokeAllTokenGrants(founder1);\n       tokenAiNetworkToken.revokeAllTokenGrants(founder2);\n       tokenAiNetworkToken.revokeAllTokenGrants(founder3);\n       tokenAiNetworkToken.revokeAllTokenGrants(founder4);\n       tokenAiNetworkToken.revokeAllTokenGrants(founder5);\n\n        uint64 vestingDate = uint64(startTime.add(TEAM_VESTING_PERIOD));\n        uint64 cliffDate = uint64(startTime.add(TEAM_VESTING_CLIFF));\n        uint64 startDate = uint64(startTime);\n\n        tokenAiNetworkToken.grantVestedTokens(founder1, SafeMath.mul(FOUNDER1_STAKE,initialPrice), startDate, cliffDate, vestingDate, true, false);\n        tokenAiNetworkToken.grantVestedTokens(founder2, SafeMath.mul(FOUNDER2_STAKE,initialPrice), startDate, cliffDate, vestingDate, true, false);\n        tokenAiNetworkToken.grantVestedTokens(founder3, SafeMath.mul(FOUNDER3_STAKE,initialPrice), startDate, cliffDate, vestingDate, true, false);\n        tokenAiNetworkToken.grantVestedTokens(founder4, SafeMath.mul(FOUNDER4_STAKE,initialPrice), startDate, cliffDate, vestingDate, true, false);\n        tokenAiNetworkToken.grantVestedTokens(founder5, SafeMath.mul(FOUNDER5_STAKE,initialPrice), startDate, cliffDate, vestingDate, true, false);\n\n        //transfer reserve tokens to multisig\n        uint reserveVal = SafeMath.mul(RESERVE,initialPrice);\n        tokenAiNetworkToken.transfer(multisigWallet,reserveVal);\n    }\n\n    // @notice Enables contribution period\n    // Must be executed by owner\n    function enableContribPeriod()\n        onlyOwner\n    {\n        require(startTime > now);\n        isEnabled = true;\n    }\n\n    // @notice Sets new min. contribution amount\n    // Only owner can execute\n    // Cannot be executed while contribution period is running\n    // @param _minContribAmount new min. amount\n    function setMinContribAmount(uint _minContribAmount)\n        onlyOwner\n    {\n        require(_minContribAmount > 0);\n        require(startTime > now);\n        minContribAmount = _minContribAmount;\n    }\n\n    // @notice Sets TokenAiNetworkToken contract\n    // Generates all TAI tokens and assigns them to this contract\n    // If token contract has already generated tokens, do not generate again\n    // @param _tokenAiNetworkToken TokenAiNetworkToken address\n    function setTokenAiNetworkToken(address _tokenAiNetworkToken)\n        onlyOwner\n    {\n        require(_tokenAiNetworkToken != 0);\n        require(!isEnabled);\n        tokenAiNetworkToken = TokenAiNetworkToken(_tokenAiNetworkToken);\n        if (tokenAiNetworkToken.totalSupply() == 0) {\n          initialSupply = FOUNDER1_STAKE\n          .add(FOUNDER2_STAKE)\n          .add(FOUNDER3_STAKE)\n          .add(FOUNDER4_STAKE)\n          .add(FOUNDER5_STAKE)\n          .add(RESERVE)\n          .add(CONTRIB_PERIOD1_STAKE);\n\n          tokenAiNetworkToken.generateTokens(this,\n              SafeMath.mul(initialSupply,initialPrice));\n\n        }\n    }\n\n    // Will be executed after contribution period by owner\n    function enableTokenAiTransfers()\n        onlyOwner\n    {\n        require(endTime < now);\n        tokenTransfersEnabled = true;\n    }\n\n    //Burn outstanding tokens owned by contract\n    function finalizeContributionEvent()\n     onlyOwner\n     {\n        require(endTime < now);\n        tokenAiNetworkToken.destroyTokens(this,tokenAiNetworkToken.balanceOf(this));\n        tokenAiNetworkToken.changeController(multisigWallet);\n\n    }\n    // @notice Method to claim tokens accidentally sent to a TAI contract\n    // Only multisig wallet can execute\n    // @param _token Address of claimed ERC20 Token\n    function claimTokensFromTokenAiNetworkToken(address _token)\n        onlyOwner\n    {\n        tokenAiNetworkToken.claimTokens(_token, multisigWallet);\n    }\n\n    function()\n        payable\n        stopInEmergency\n    {\n        contributeWithAddress(msg.sender);\n    }\n\n    // MiniMe Controller default settings for allowing token transfers.\n    function proxyPayment(address _owner) payable public returns (bool) {\n        revert();\n    }\n\n    // Before transfers are enabled for everyone, only this contract is allowed to distribute TAI\n    function onTransfer(address _from, address _to, uint _amount) public returns (bool) {\n        return tokenTransfersEnabled || _from == address(this) || _to == address(this);\n    }\n\n    function onApprove(address _owner, address _spender, uint _amount) public returns (bool) {\n        return tokenTransfersEnabled;\n    }\n\n    function isTokenSaleToken(address tokenAddr) returns(bool) {\n        return tokenAiNetworkToken == tokenAddr;\n    }\n\n    /*\n     Following constant methods are used for tests and contribution web app\n     They don't impact logic of contribution contract, therefor DOES NOT NEED TO BE AUDITED\n     */\n\n    // Used by contribution front-end to obtain contribution period properties\n    function getContribPeriod()\n        constant\n        returns (bool[3] boolValues, uint[8] uintValues)\n    {\n        boolValues[0] = isEnabled;\n        boolValues[1] = softCapReached;\n        boolValues[2] = hardCapReached;\n\n        uintValues[0] = softCapAmount;\n        uintValues[1] = afterSoftCapDuration;\n        uintValues[2] = hardCapAmount;\n        uintValues[3] = startTime;\n        uintValues[4] = endTime;\n        uintValues[5] = totalContributed;\n        uintValues[6] = contributorsKeys.length;\n        uintValues[7] = CONTRIB_PERIOD1_STAKE;\n\n        return (boolValues, uintValues);\n    }\n\n    // Used by contribution front-end to obtain contribution contract properties\n      function getConfiguration()\n          constant\n          returns (bool, address, address, address, address, address, address, bool)\n      {\n\n          return (stopped, multisigWallet, founder1, founder2, founder3, founder4, founder5, tokenTransfersEnabled);\n      }\n\n    // Used by contribution front-end to obtain contributor's properties\n    function getContributor(address contributorAddress)\n        constant\n        returns(uint, bool, uint, uint)\n    {\n        Contributor contributor = contributors[contributorAddress];\n        return (contributor.amount, contributor.isCompensated, contributor.amountCompensated , contributor.price);\n    }\n\n    // Function to verify if all contributors were compensated\n    function getUncompensatedContributors(uint offset, uint limit)\n        constant\n        returns (uint[] contributorIndexes)\n    {\n        uint contributorsCount = contributorsKeys.length;\n\n        if (limit == 0) {\n            limit = contributorsCount;\n        }\n\n        uint i = offset;\n        uint resultsCount = 0;\n        uint[] memory _contributorIndexes = new uint[](limit);\n\n        while (i < contributorsCount && resultsCount < limit) {\n            if (!contributors[contributorsKeys[i]].isCompensated) {\n                _contributorIndexes[resultsCount] = i;\n                resultsCount++;\n            }\n            i++;\n        }\n\n        contributorIndexes = new uint[](resultsCount);\n        for (i = 0; i < resultsCount; i++) {\n            contributorIndexes[i] = _contributorIndexes[i];\n        }\n        return contributorIndexes;\n    }\n}\n",
  "sourcePath": "/Users/igershteyn/tokenai-network-token/contracts/TokenAiContribution.sol",
  "compiler": {
    "name": "solc",
    "version": "0.4.18+commit.9cf6e910.Emscripten.clang"
  },
  "schemaVersion": "1.0.1",
  "updatedAt": "2018-02-11T01:05:42.518Z"
}